{
  "_format": "hh-sol-artifact-1",
  "contractName": "MyEpicNFT",
  "sourceName": "contracts/MyEpicNFT.sol",
  "abi": [
    {
      "inputs": [],
      "stateMutability": "nonpayable",
      "type": "constructor"
    },
    {
      "anonymous": false,
      "inputs": [
        {
          "indexed": true,
          "internalType": "address",
          "name": "owner",
          "type": "address"
        },
        {
          "indexed": true,
          "internalType": "address",
          "name": "approved",
          "type": "address"
        },
        {
          "indexed": true,
          "internalType": "uint256",
          "name": "tokenId",
          "type": "uint256"
        }
      ],
      "name": "Approval",
      "type": "event"
    },
    {
      "anonymous": false,
      "inputs": [
        {
          "indexed": true,
          "internalType": "address",
          "name": "owner",
          "type": "address"
        },
        {
          "indexed": true,
          "internalType": "address",
          "name": "operator",
          "type": "address"
        },
        {
          "indexed": false,
          "internalType": "bool",
          "name": "approved",
          "type": "bool"
        }
      ],
      "name": "ApprovalForAll",
      "type": "event"
    },
    {
      "anonymous": false,
      "inputs": [
        {
          "indexed": false,
          "internalType": "address",
          "name": "sender",
          "type": "address"
        },
        {
          "indexed": false,
          "internalType": "uint256",
          "name": "tokenId",
          "type": "uint256"
        },
        {
          "indexed": false,
          "internalType": "uint256",
          "name": "tokenSupply",
          "type": "uint256"
        }
      ],
      "name": "NewEpicNFTMinted",
      "type": "event"
    },
    {
      "anonymous": false,
      "inputs": [
        {
          "indexed": true,
          "internalType": "address",
          "name": "from",
          "type": "address"
        },
        {
          "indexed": true,
          "internalType": "address",
          "name": "to",
          "type": "address"
        },
        {
          "indexed": true,
          "internalType": "uint256",
          "name": "tokenId",
          "type": "uint256"
        }
      ],
      "name": "Transfer",
      "type": "event"
    },
    {
      "inputs": [],
      "name": "MAX_TOKEN_SUPPLY",
      "outputs": [
        {
          "internalType": "uint256",
          "name": "",
          "type": "uint256"
        }
      ],
      "stateMutability": "view",
      "type": "function"
    },
    {
      "inputs": [
        {
          "internalType": "address",
          "name": "to",
          "type": "address"
        },
        {
          "internalType": "uint256",
          "name": "tokenId",
          "type": "uint256"
        }
      ],
      "name": "approve",
      "outputs": [],
      "stateMutability": "nonpayable",
      "type": "function"
    },
    {
      "inputs": [
        {
          "internalType": "address",
          "name": "owner",
          "type": "address"
        }
      ],
      "name": "balanceOf",
      "outputs": [
        {
          "internalType": "uint256",
          "name": "",
          "type": "uint256"
        }
      ],
      "stateMutability": "view",
      "type": "function"
    },
    {
      "inputs": [
        {
          "internalType": "uint256",
          "name": "tokenId",
          "type": "uint256"
        }
      ],
      "name": "getApproved",
      "outputs": [
        {
          "internalType": "address",
          "name": "",
          "type": "address"
        }
      ],
      "stateMutability": "view",
      "type": "function"
    },
    {
      "inputs": [
        {
          "internalType": "address",
          "name": "owner",
          "type": "address"
        },
        {
          "internalType": "address",
          "name": "operator",
          "type": "address"
        }
      ],
      "name": "isApprovedForAll",
      "outputs": [
        {
          "internalType": "bool",
          "name": "",
          "type": "bool"
        }
      ],
      "stateMutability": "view",
      "type": "function"
    },
    {
      "inputs": [],
      "name": "makeAnEpicNFT",
      "outputs": [],
      "stateMutability": "nonpayable",
      "type": "function"
    },
    {
      "inputs": [],
      "name": "name",
      "outputs": [
        {
          "internalType": "string",
          "name": "",
          "type": "string"
        }
      ],
      "stateMutability": "view",
      "type": "function"
    },
    {
      "inputs": [
        {
          "internalType": "uint256",
          "name": "tokenId",
          "type": "uint256"
        }
      ],
      "name": "ownerOf",
      "outputs": [
        {
          "internalType": "address",
          "name": "",
          "type": "address"
        }
      ],
      "stateMutability": "view",
      "type": "function"
    },
    {
      "inputs": [
        {
          "internalType": "uint256",
          "name": "tokenId",
          "type": "uint256"
        }
      ],
      "name": "pickRandomFirstWord",
      "outputs": [
        {
          "internalType": "string",
          "name": "",
          "type": "string"
        }
      ],
      "stateMutability": "view",
      "type": "function"
    },
    {
      "inputs": [
        {
          "internalType": "uint256",
          "name": "tokenId",
          "type": "uint256"
        }
      ],
      "name": "pickRandomSecondWord",
      "outputs": [
        {
          "internalType": "string",
          "name": "",
          "type": "string"
        }
      ],
      "stateMutability": "view",
      "type": "function"
    },
    {
      "inputs": [
        {
          "internalType": "uint256",
          "name": "tokenId",
          "type": "uint256"
        }
      ],
      "name": "pickRandomThirdWord",
      "outputs": [
        {
          "internalType": "string",
          "name": "",
          "type": "string"
        }
      ],
      "stateMutability": "view",
      "type": "function"
    },
    {
      "inputs": [
        {
          "internalType": "address",
          "name": "from",
          "type": "address"
        },
        {
          "internalType": "address",
          "name": "to",
          "type": "address"
        },
        {
          "internalType": "uint256",
          "name": "tokenId",
          "type": "uint256"
        }
      ],
      "name": "safeTransferFrom",
      "outputs": [],
      "stateMutability": "nonpayable",
      "type": "function"
    },
    {
      "inputs": [
        {
          "internalType": "address",
          "name": "from",
          "type": "address"
        },
        {
          "internalType": "address",
          "name": "to",
          "type": "address"
        },
        {
          "internalType": "uint256",
          "name": "tokenId",
          "type": "uint256"
        },
        {
          "internalType": "bytes",
          "name": "_data",
          "type": "bytes"
        }
      ],
      "name": "safeTransferFrom",
      "outputs": [],
      "stateMutability": "nonpayable",
      "type": "function"
    },
    {
      "inputs": [
        {
          "internalType": "address",
          "name": "operator",
          "type": "address"
        },
        {
          "internalType": "bool",
          "name": "approved",
          "type": "bool"
        }
      ],
      "name": "setApprovalForAll",
      "outputs": [],
      "stateMutability": "nonpayable",
      "type": "function"
    },
    {
      "inputs": [
        {
          "internalType": "bytes4",
          "name": "interfaceId",
          "type": "bytes4"
        }
      ],
      "name": "supportsInterface",
      "outputs": [
        {
          "internalType": "bool",
          "name": "",
          "type": "bool"
        }
      ],
      "stateMutability": "view",
      "type": "function"
    },
    {
      "inputs": [],
      "name": "symbol",
      "outputs": [
        {
          "internalType": "string",
          "name": "",
          "type": "string"
        }
      ],
      "stateMutability": "view",
      "type": "function"
    },
    {
      "inputs": [
        {
          "internalType": "uint256",
          "name": "tokenId",
          "type": "uint256"
        }
      ],
      "name": "tokenURI",
      "outputs": [
        {
          "internalType": "string",
          "name": "",
          "type": "string"
        }
      ],
      "stateMutability": "view",
      "type": "function"
    },
    {
      "inputs": [
        {
          "internalType": "address",
          "name": "from",
          "type": "address"
        },
        {
          "internalType": "address",
          "name": "to",
          "type": "address"
        },
        {
          "internalType": "uint256",
          "name": "tokenId",
          "type": "uint256"
        }
      ],
      "name": "transferFrom",
      "outputs": [],
      "stateMutability": "nonpayable",
      "type": "function"
    }
  ],
  "bytecode": "0x608060405260405180610160016040528061012f8152602001620045f161012f9139600890805190602001906200003892919062000683565b506040518060c001604052806040518060400160405280600681526020017f59616d616461000000000000000000000000000000000000000000000000000081525081526020016040518060400160405280600681526020017f54616e616b61000000000000000000000000000000000000000000000000000081525081526020016040518060400160405280600481526020017f5361746f0000000000000000000000000000000000000000000000000000000081525081526020016040518060400160405280600481526020017f496964610000000000000000000000000000000000000000000000000000000081525081526020016040518060400160405280600681526020017f53757a756b69000000000000000000000000000000000000000000000000000081525081526020016040518060400160405280600681526020017f436f6e766f6900000000000000000000000000000000000000000000000000008152508152506009906006620001b692919062000714565b506040518060c001604052806040518060400160405280600681526020017f416e64726565000000000000000000000000000000000000000000000000000081525081526020016040518060400160405280600881526020017f506f6b65706f6b6500000000000000000000000000000000000000000000000081525081526020016040518060400160405280600681526020017f4a6167676572000000000000000000000000000000000000000000000000000081525081526020016040518060400160405280600681526020017f526f636b6574000000000000000000000000000000000000000000000000000081525081526020016040518060400160405280600481526020017f426c75650000000000000000000000000000000000000000000000000000000081525081526020016040518060400160405280600781526020017f5468756e64657200000000000000000000000000000000000000000000000000815250815250600a9060066200033492919062000714565b506040518060c001604052806040518060400160405280600881526020017f4d6f6d6f7461726f00000000000000000000000000000000000000000000000081525081526020016040518060400160405280600581526020017f4f6e696b6f00000000000000000000000000000000000000000000000000000081525081526020016040518060400160405280600981526020017f476f6e7a616275726f000000000000000000000000000000000000000000000081525081526020016040518060400160405280600781526020017f5365696a75726f0000000000000000000000000000000000000000000000000081525081526020016040518060400160405280600581526020017f556d656b6f00000000000000000000000000000000000000000000000000000081525081526020016040518060400160405280600681526020017f59616d61746f0000000000000000000000000000000000000000000000000000815250815250600b906006620004b292919062000714565b506002600c55348015620004c557600080fd5b506040518060400160405280600981526020017f5371756172654e465400000000000000000000000000000000000000000000008152506040518060400160405280600681526020017f535155415245000000000000000000000000000000000000000000000000000081525081600090805190602001906200054a92919062000683565b5080600190805190602001906200056392919062000683565b505050620005b16040518060400160405280601881526020017f54686973206973206d79204e465420636f6e74726163742e0000000000000000815250620005b760201b620012481760201c565b62000935565b6200065781604051602401620005ce919062000849565b6040516020818303038152906040527f41304fac000000000000000000000000000000000000000000000000000000007bffffffffffffffffffffffffffffffffffffffffffffffffffffffff19166020820180517bffffffffffffffffffffffffffffffffffffffffffffffffffffffff83818316178352505050506200065a60201b60201c565b50565b60008151905060006a636f6e736f6c652e6c6f679050602083016000808483855afa5050505050565b8280546200069190620008bf565b90600052602060002090601f016020900481019282620006b5576000855562000701565b82601f10620006d057805160ff191683800117855562000701565b8280016001018555821562000701579182015b8281111562000700578251825591602001919060010190620006e3565b5b5090506200071091906200077b565b5090565b82805482825590600052602060002090810192821562000768579160200282015b82811115620007675782518290805190602001906200075692919062000683565b509160200191906001019062000735565b5b5090506200077791906200079a565b5090565b5b80821115620007965760008160009055506001016200077c565b5090565b5b80821115620007be5760008181620007b49190620007c2565b506001016200079b565b5090565b508054620007d090620008bf565b6000825580601f10620007e4575062000805565b601f0160209004906000526020600020908101906200080491906200077b565b5b50565b600062000815826200086d565b62000821818562000878565b93506200083381856020860162000889565b6200083e8162000924565b840191505092915050565b6000602082019050818103600083015262000865818462000808565b905092915050565b600081519050919050565b600082825260208201905092915050565b60005b83811015620008a95780820151818401526020810190506200088c565b83811115620008b9576000848401525b50505050565b60006002820490506001821680620008d857607f821691505b60208210811415620008ef57620008ee620008f5565b5b50919050565b7f4e487b7100000000000000000000000000000000000000000000000000000000600052602260045260246000fd5b6000601f19601f8301169050919050565b613cac80620009456000396000f3fe608060405234801561001057600080fd5b50600436106101165760003560e01c806395d89b41116100a2578063c575757a11610071578063c575757a14610303578063c87b56dd14610333578063de9d132f14610363578063e489d5101461036d578063e985e9c51461038b57610116565b806395d89b411461027d578063a22cb4651461029b578063b187301f146102b7578063b88d4fde146102e757610116565b806323b872dd116100e957806323b872dd146101b55780632de38d68146101d157806342842e0e146102015780636352211e1461021d57806370a082311461024d57610116565b806301ffc9a71461011b57806306fdde031461014b578063081812fc14610169578063095ea7b314610199575b600080fd5b61013560048036038101906101309190612710565b6103bb565b6040516101429190612e4b565b60405180910390f35b61015361049d565b6040516101609190612e66565b60405180910390f35b610183600480360381019061017e9190612762565b61052f565b6040516101909190612dad565b60405180910390f35b6101b360048036038101906101ae91906126d4565b6105b4565b005b6101cf60048036038101906101ca91906125ce565b6106cc565b005b6101eb60048036038101906101e69190612762565b61072c565b6040516101f89190612e66565b60405180910390f35b61021b600480360381019061021691906125ce565b6108c8565b005b61023760048036038101906102329190612762565b6108e8565b6040516102449190612dad565b60405180910390f35b61026760048036038101906102629190612569565b61099a565b6040516102749190613116565b60405180910390f35b610285610a52565b6040516102929190612e66565b60405180910390f35b6102b560048036038101906102b09190612698565b610ae4565b005b6102d160048036038101906102cc9190612762565b610afa565b6040516102de9190612e66565b60405180910390f35b61030160048036038101906102fc919061261d565b610c18565b005b61031d60048036038101906103189190612762565b610c7a565b60405161032a9190612e66565b60405180910390f35b61034d60048036038101906103489190612762565b610d98565b60405161035a9190612e66565b60405180910390f35b61036b610eea565b005b6103756111ae565b6040516103829190613116565b60405180910390f35b6103a560048036038101906103a09190612592565b6111b4565b6040516103b29190612e4b565b60405180910390f35b60007f80ac58cd000000000000000000000000000000000000000000000000000000007bffffffffffffffffffffffffffffffffffffffffffffffffffffffff1916827bffffffffffffffffffffffffffffffffffffffffffffffffffffffff1916148061048657507f5b5e139f000000000000000000000000000000000000000000000000000000007bffffffffffffffffffffffffffffffffffffffffffffffffffffffff1916827bffffffffffffffffffffffffffffffffffffffffffffffffffffffff1916145b806104965750610495826112e1565b5b9050919050565b6060600080546104ac906133aa565b80601f01602080910402602001604051908101604052809291908181526020018280546104d8906133aa565b80156105255780601f106104fa57610100808354040283529160200191610525565b820191906000526020600020905b81548152906001019060200180831161050857829003601f168201915b5050505050905090565b600061053a8261134b565b610579576040517f08c379a000000000000000000000000000000000000000000000000000000000815260040161057090613096565b60405180910390fd5b6004600083815260200190815260200160002060009054906101000a900473ffffffffffffffffffffffffffffffffffffffff169050919050565b60006105bf826108e8565b90508073ffffffffffffffffffffffffffffffffffffffff168373ffffffffffffffffffffffffffffffffffffffff161415610630576040517f08c379a0000000000000000000000000000000000000000000000000000000008152600401610627906130d6565b60405180910390fd5b8073ffffffffffffffffffffffffffffffffffffffff1661064f6113b7565b73ffffffffffffffffffffffffffffffffffffffff16148061067e575061067d816106786113b7565b6111b4565b5b6106bd576040517f08c379a00000000000000000000000000000000000000000000000000000000081526004016106b490612fb6565b60405180910390fd5b6106c783836113bf565b505050565b6106dd6106d76113b7565b82611478565b61071c576040517f08c379a0000000000000000000000000000000000000000000000000000000008152600401610713906130f6565b60405180910390fd5b610727838383611556565b505050565b6060600061076061073c846117bd565b60405160200161074c9190612d69565b60405160208183030381529060405261196a565b90506107a16040518060400160405280600d81526020017f72616e64202d20736565643a20000000000000000000000000000000000000008152508261199d565b600980549050816107b29190613456565b90506107f36040518060400160405280601381526020017f72616e64202d20666972737420776f72643a20000000000000000000000000008152508261199d565b6009818154811061082d577f4e487b7100000000000000000000000000000000000000000000000000000000600052603260045260246000fd5b906000526020600020018054610842906133aa565b80601f016020809104026020016040519081016040528092919081815260200182805461086e906133aa565b80156108bb5780601f10610890576101008083540402835291602001916108bb565b820191906000526020600020905b81548152906001019060200180831161089e57829003601f168201915b5050505050915050919050565b6108e383838360405180602001604052806000815250610c18565b505050565b6000806002600084815260200190815260200160002060009054906101000a900473ffffffffffffffffffffffffffffffffffffffff169050600073ffffffffffffffffffffffffffffffffffffffff168173ffffffffffffffffffffffffffffffffffffffff161415610991576040517f08c379a000000000000000000000000000000000000000000000000000000000815260040161098890612ff6565b60405180910390fd5b80915050919050565b60008073ffffffffffffffffffffffffffffffffffffffff168273ffffffffffffffffffffffffffffffffffffffff161415610a0b576040517f08c379a0000000000000000000000000000000000000000000000000000000008152600401610a0290612fd6565b60405180910390fd5b600360008373ffffffffffffffffffffffffffffffffffffffff1673ffffffffffffffffffffffffffffffffffffffff168152602001908152602001600020549050919050565b606060018054610a61906133aa565b80601f0160208091040260200160405190810160405280929190818152602001828054610a8d906133aa565b8015610ada5780601f10610aaf57610100808354040283529160200191610ada565b820191906000526020600020905b815481529060010190602001808311610abd57829003601f168201915b5050505050905090565b610af6610aef6113b7565b8383611a39565b5050565b60606000610b2e610b0a846117bd565b604051602001610b1a9190612d02565b60405160208183030381529060405261196a565b9050600a8054905081610b419190613456565b9050600a8181548110610b7d577f4e487b7100000000000000000000000000000000000000000000000000000000600052603260045260246000fd5b906000526020600020018054610b92906133aa565b80601f0160208091040260200160405190810160405280929190818152602001828054610bbe906133aa565b8015610c0b5780601f10610be057610100808354040283529160200191610c0b565b820191906000526020600020905b815481529060010190602001808311610bee57829003601f168201915b5050505050915050919050565b610c29610c236113b7565b83611478565b610c68576040517f08c379a0000000000000000000000000000000000000000000000000000000008152600401610c5f906130f6565b60405180910390fd5b610c7484848484611ba6565b50505050565b60606000610cae610c8a846117bd565b604051602001610c9a9190612ce0565b60405160208183030381529060405261196a565b9050600b8054905081610cc19190613456565b9050600b8181548110610cfd577f4e487b7100000000000000000000000000000000000000000000000000000000600052603260045260246000fd5b906000526020600020018054610d12906133aa565b80601f0160208091040260200160405190810160405280929190818152602001828054610d3e906133aa565b8015610d8b5780601f10610d6057610100808354040283529160200191610d8b565b820191906000526020600020905b815481529060010190602001808311610d6e57829003601f168201915b5050505050915050919050565b6060610da38261134b565b610de2576040517f08c379a0000000000000000000000000000000000000000000000000000000008152600401610dd990613076565b60405180910390fd5b6000600660008481526020019081526020016000208054610e02906133aa565b80601f0160208091040260200160405190810160405280929190818152602001828054610e2e906133aa565b8015610e7b5780601f10610e5057610100808354040283529160200191610e7b565b820191906000526020600020905b815481529060010190602001808311610e5e57829003601f168201915b505050505090506000610e8c611c02565b9050600081511415610ea2578192505050610ee5565b600082511115610ed7578082604051602001610ebf929190612c5c565b60405160208183030381529060405292505050610ee5565b610ee084611c19565b925050505b919050565b600c54610ef76007611cc0565b10610f37576040517f08c379a0000000000000000000000000000000000000000000000000000000008152600401610f2e90613056565b60405180910390fd5b6000610f436007611cc0565b90506000610f508261072c565b90506000610f5d83610afa565b90506000610f6a84610c7a565b90506000838383604051602001610f8393929190612c80565b60405160208183030381529060405290506000600882604051602001610faa929190612cb1565b6040516020818303038152906040529050610ff96040518060400160405280601581526020017f0a2d2d2d2d2d205356472064617461202d2d2d2d2d0000000000000000000000815250611248565b61100281611248565b6110406040518060400160405280601581526020017f2d2d2d2d2d2d2d2d2d2d2d2d2d2d2d2d2d2d2d2d0a0000000000000000000000815250611248565b60006110748361104f84611cce565b604051602001611060929190612d24565b604051602081830303815290604052611cce565b90506000816040516020016110899190612d8b565b60405160208183030381529060405290506110d86040518060400160405280601581526020017f0a2d2d2d2d2d20546f6b656e20555249202d2d2d2d0000000000000000000000815250611248565b6110e181611248565b61111f6040518060400160405280601581526020017f2d2d2d2d2d2d2d2d2d2d2d2d2d2d2d2d2d2d2d2d0a0000000000000000000000815250611248565b6111293389611e8c565b6111338882611eaa565b611156604051806060016040528060258152602001613c12602591398933611f1e565b6111606007611fbd565b7f9e9e101732de0887d722bd72c01c5439edc857c9c2c763953d67e66de12441d3338961118d6007611cc0565b60405161119c93929190612e14565b60405180910390a15050505050505050565b600c5481565b6000600560008473ffffffffffffffffffffffffffffffffffffffff1673ffffffffffffffffffffffffffffffffffffffff16815260200190815260200160002060008373ffffffffffffffffffffffffffffffffffffffff1673ffffffffffffffffffffffffffffffffffffffff16815260200190815260200160002060009054906101000a900460ff16905092915050565b6112de8160405160240161125c9190612e66565b6040516020818303038152906040527f41304fac000000000000000000000000000000000000000000000000000000007bffffffffffffffffffffffffffffffffffffffffffffffffffffffff19166020820180517bffffffffffffffffffffffffffffffffffffffffffffffffffffffff8381831617835250505050611fd3565b50565b60007f01ffc9a7000000000000000000000000000000000000000000000000000000007bffffffffffffffffffffffffffffffffffffffffffffffffffffffff1916827bffffffffffffffffffffffffffffffffffffffffffffffffffffffff1916149050919050565b60008073ffffffffffffffffffffffffffffffffffffffff166002600084815260200190815260200160002060009054906101000a900473ffffffffffffffffffffffffffffffffffffffff1673ffffffffffffffffffffffffffffffffffffffff1614159050919050565b600033905090565b816004600083815260200190815260200160002060006101000a81548173ffffffffffffffffffffffffffffffffffffffff021916908373ffffffffffffffffffffffffffffffffffffffff160217905550808273ffffffffffffffffffffffffffffffffffffffff16611432836108e8565b73ffffffffffffffffffffffffffffffffffffffff167f8c5be1e5ebec7d5bd14f71427d1e84f3dd0314c0f7b2291e5b200ac8c7c3b92560405160405180910390a45050565b60006114838261134b565b6114c2576040517f08c379a00000000000000000000000000000000000000000000000000000000081526004016114b990612f96565b60405180910390fd5b60006114cd836108e8565b90508073ffffffffffffffffffffffffffffffffffffffff168473ffffffffffffffffffffffffffffffffffffffff16148061153c57508373ffffffffffffffffffffffffffffffffffffffff166115248461052f565b73ffffffffffffffffffffffffffffffffffffffff16145b8061154d575061154c81856111b4565b5b91505092915050565b8273ffffffffffffffffffffffffffffffffffffffff16611576826108e8565b73ffffffffffffffffffffffffffffffffffffffff16146115cc576040517f08c379a00000000000000000000000000000000000000000000000000000000081526004016115c390612f16565b60405180910390fd5b600073ffffffffffffffffffffffffffffffffffffffff168273ffffffffffffffffffffffffffffffffffffffff16141561163c576040517f08c379a000000000000000000000000000000000000000000000000000000000815260040161163390612f56565b60405180910390fd5b611647838383611ffc565b6116526000826113bf565b6001600360008573ffffffffffffffffffffffffffffffffffffffff1673ffffffffffffffffffffffffffffffffffffffff16815260200190815260200160002060008282546116a291906132c0565b925050819055506001600360008473ffffffffffffffffffffffffffffffffffffffff1673ffffffffffffffffffffffffffffffffffffffff16815260200190815260200160002060008282546116f991906131df565b92505081905550816002600083815260200190815260200160002060006101000a81548173ffffffffffffffffffffffffffffffffffffffff021916908373ffffffffffffffffffffffffffffffffffffffff160217905550808273ffffffffffffffffffffffffffffffffffffffff168473ffffffffffffffffffffffffffffffffffffffff167fddf252ad1be2c89b69c2b068fc378daa952ba7f163c4a11628f55a4df523b3ef60405160405180910390a46117b8838383612001565b505050565b60606000821415611805576040518060400160405280600181526020017f30000000000000000000000000000000000000000000000000000000000000008152509050611965565b600082905060005b600082146118375780806118209061340d565b915050600a826118309190613235565b915061180d565b60008167ffffffffffffffff811115611879577f4e487b7100000000000000000000000000000000000000000000000000000000600052604160045260246000fd5b6040519080825280601f01601f1916602001820160405280156118ab5781602001600182028036833780820191505090505b5090505b6000851461195e576001826118c491906132c0565b9150600a856118d39190613456565b60306118df91906131df565b60f81b81838151811061191b577f4e487b7100000000000000000000000000000000000000000000000000000000600052603260045260246000fd5b60200101907effffffffffffffffffffffffffffffffffffffffffffffffffffffffffffff1916908160001a905350600a856119579190613235565b94506118af565b8093505050505b919050565b60008160405160200161197d9190612c45565b6040516020818303038152906040528051906020012060001c9050919050565b611a3582826040516024016119b3929190612e88565b6040516020818303038152906040527f9710a9d0000000000000000000000000000000000000000000000000000000007bffffffffffffffffffffffffffffffffffffffffffffffffffffffff19166020820180517bffffffffffffffffffffffffffffffffffffffffffffffffffffffff8381831617835250505050611fd3565b5050565b8173ffffffffffffffffffffffffffffffffffffffff168373ffffffffffffffffffffffffffffffffffffffff161415611aa8576040517f08c379a0000000000000000000000000000000000000000000000000000000008152600401611a9f90612f76565b60405180910390fd5b80600560008573ffffffffffffffffffffffffffffffffffffffff1673ffffffffffffffffffffffffffffffffffffffff16815260200190815260200160002060008473ffffffffffffffffffffffffffffffffffffffff1673ffffffffffffffffffffffffffffffffffffffff16815260200190815260200160002060006101000a81548160ff0219169083151502179055508173ffffffffffffffffffffffffffffffffffffffff168373ffffffffffffffffffffffffffffffffffffffff167f17307eab39ab6107e8899845ad3d59bd9653f200f220920489ca2b5937696c3183604051611b999190612e4b565b60405180910390a3505050565b611bb1848484611556565b611bbd84848484612006565b611bfc576040517f08c379a0000000000000000000000000000000000000000000000000000000008152600401611bf390612ef6565b60405180910390fd5b50505050565b606060405180602001604052806000815250905090565b6060611c248261134b565b611c63576040517f08c379a0000000000000000000000000000000000000000000000000000000008152600401611c5a906130b6565b60405180910390fd5b6000611c6d611c02565b90506000815111611c8d5760405180602001604052806000815250611cb8565b80611c97846117bd565b604051602001611ca8929190612c5c565b6040516020818303038152906040525b915050919050565b600081600001549050919050565b60606000825190506000811415611cf75760405180602001604052806000815250915050611e87565b60006003600283611d0891906131df565b611d129190613235565b6004611d1e9190613266565b90506000602082611d2f91906131df565b67ffffffffffffffff811115611d6e577f4e487b7100000000000000000000000000000000000000000000000000000000600052604160045260246000fd5b6040519080825280601f01601f191660200182016040528015611da05781602001600182028036833780820191505090505b5090506000604051806060016040528060408152602001613c37604091399050600181016020830160005b86811015611e445760038101905062ffffff818a015116603f8160121c168401518060081b905060ff603f83600c1c1686015116810190508060081b905060ff603f8360061c1686015116810190508060081b905060ff603f831686015116810190508060e01b90508084526004840193505050611dcb565b506003860660018114611e5e5760028114611e6e57611e79565b613d3d60f01b6002830352611e79565b603d60f81b60018303525b508484525050819450505050505b919050565b611ea682826040518060200160405280600081525061219d565b5050565b611eb38261134b565b611ef2576040517f08c379a0000000000000000000000000000000000000000000000000000000008152600401611ee990613016565b60405180910390fd5b80600660008481526020019081526020016000209080519060200190611f199291906123f5565b505050565b611fb8838383604051602401611f3693929190612eb8565b6040516020818303038152906040527fe3849f79000000000000000000000000000000000000000000000000000000007bffffffffffffffffffffffffffffffffffffffffffffffffffffffff19166020820180517bffffffffffffffffffffffffffffffffffffffffffffffffffffffff8381831617835250505050611fd3565b505050565b6001816000016000828254019250508190555050565b60008151905060006a636f6e736f6c652e6c6f679050602083016000808483855afa5050505050565b505050565b505050565b60006120278473ffffffffffffffffffffffffffffffffffffffff166121f8565b15612190578373ffffffffffffffffffffffffffffffffffffffff1663150b7a026120506113b7565b8786866040518563ffffffff1660e01b81526004016120729493929190612dc8565b602060405180830381600087803b15801561208c57600080fd5b505af19250505080156120bd57506040513d601f19601f820116820180604052508101906120ba9190612739565b60015b612140573d80600081146120ed576040519150601f19603f3d011682016040523d82523d6000602084013e6120f2565b606091505b50600081511415612138576040517f08c379a000000000000000000000000000000000000000000000000000000000815260040161212f90612ef6565b60405180910390fd5b805181602001fd5b63150b7a0260e01b7bffffffffffffffffffffffffffffffffffffffffffffffffffffffff1916817bffffffffffffffffffffffffffffffffffffffffffffffffffffffff191614915050612195565b600190505b949350505050565b6121a7838361221b565b6121b46000848484612006565b6121f3576040517f08c379a00000000000000000000000000000000000000000000000000000000081526004016121ea90612ef6565b60405180910390fd5b505050565b6000808273ffffffffffffffffffffffffffffffffffffffff163b119050919050565b600073ffffffffffffffffffffffffffffffffffffffff168273ffffffffffffffffffffffffffffffffffffffff16141561228b576040517f08c379a000000000000000000000000000000000000000000000000000000000815260040161228290613036565b60405180910390fd5b6122948161134b565b156122d4576040517f08c379a00000000000000000000000000000000000000000000000000000000081526004016122cb90612f36565b60405180910390fd5b6122e060008383611ffc565b6001600360008473ffffffffffffffffffffffffffffffffffffffff1673ffffffffffffffffffffffffffffffffffffffff168152602001908152602001600020600082825461233091906131df565b92505081905550816002600083815260200190815260200160002060006101000a81548173ffffffffffffffffffffffffffffffffffffffff021916908373ffffffffffffffffffffffffffffffffffffffff160217905550808273ffffffffffffffffffffffffffffffffffffffff16600073ffffffffffffffffffffffffffffffffffffffff167fddf252ad1be2c89b69c2b068fc378daa952ba7f163c4a11628f55a4df523b3ef60405160405180910390a46123f160008383612001565b5050565b828054612401906133aa565b90600052602060002090601f016020900481019282612423576000855561246a565b82601f1061243c57805160ff191683800117855561246a565b8280016001018555821561246a579182015b8281111561246957825182559160200191906001019061244e565b5b509050612477919061247b565b5090565b5b8082111561249457600081600090555060010161247c565b5090565b60006124ab6124a684613156565b613131565b9050828152602081018484840111156124c357600080fd5b6124ce848285613368565b509392505050565b6000813590506124e581613bb5565b92915050565b6000813590506124fa81613bcc565b92915050565b60008135905061250f81613be3565b92915050565b60008151905061252481613be3565b92915050565b600082601f83011261253b57600080fd5b813561254b848260208601612498565b91505092915050565b60008135905061256381613bfa565b92915050565b60006020828403121561257b57600080fd5b6000612589848285016124d6565b91505092915050565b600080604083850312156125a557600080fd5b60006125b3858286016124d6565b92505060206125c4858286016124d6565b9150509250929050565b6000806000606084860312156125e357600080fd5b60006125f1868287016124d6565b9350506020612602868287016124d6565b925050604061261386828701612554565b9150509250925092565b6000806000806080858703121561263357600080fd5b6000612641878288016124d6565b9450506020612652878288016124d6565b935050604061266387828801612554565b925050606085013567ffffffffffffffff81111561268057600080fd5b61268c8782880161252a565b91505092959194509250565b600080604083850312156126ab57600080fd5b60006126b9858286016124d6565b92505060206126ca858286016124eb565b9150509250929050565b600080604083850312156126e757600080fd5b60006126f5858286016124d6565b925050602061270685828601612554565b9150509250929050565b60006020828403121561272257600080fd5b600061273084828501612500565b91505092915050565b60006020828403121561274b57600080fd5b600061275984828501612515565b91505092915050565b60006020828403121561277457600080fd5b600061278284828501612554565b91505092915050565b612794816132f4565b82525050565b6127a381613306565b82525050565b60006127b48261319c565b6127be81856131b2565b93506127ce818560208601613377565b6127d781613543565b840191505092915050565b60006127ed826131a7565b6127f781856131c3565b9350612807818560208601613377565b61281081613543565b840191505092915050565b6000612826826131a7565b61283081856131d4565b9350612840818560208601613377565b80840191505092915050565b60008154612859816133aa565b61286381866131d4565b9450600182166000811461287e576001811461288f576128c2565b60ff198316865281860193506128c2565b61289885613187565b60005b838110156128ba5781548189015260018201915060208101905061289b565b838801955050505b50505092915050565b60006128d86032836131c3565b91506128e382613554565b604082019050919050565b60006128fb6025836131c3565b9150612906826135a3565b604082019050919050565b600061291e601c836131c3565b9150612929826135f2565b602082019050919050565b6000612941600a836131d4565b915061294c8261361b565b600a82019050919050565b60006129646024836131c3565b915061296f82613644565b604082019050919050565b60006129876019836131c3565b915061299282613693565b602082019050919050565b60006129aa6063836131d4565b91506129b5826136bc565b606382019050919050565b60006129cd600b836131d4565b91506129d882613757565b600b82019050919050565b60006129f0602c836131c3565b91506129fb82613780565b604082019050919050565b6000612a13600d836131d4565b9150612a1e826137cf565b600d82019050919050565b6000612a366038836131c3565b9150612a41826137f8565b604082019050919050565b6000612a59602a836131c3565b9150612a6482613847565b604082019050919050565b6000612a7c6029836131c3565b9150612a8782613896565b604082019050919050565b6000612a9f602e836131c3565b9150612aaa826138e5565b604082019050919050565b6000612ac26002836131d4565b9150612acd82613934565b600282019050919050565b6000612ae56020836131c3565b9150612af08261395d565b602082019050919050565b6000612b08601a836131c3565b9150612b1382613986565b602082019050919050565b6000612b2b6031836131c3565b9150612b36826139af565b604082019050919050565b6000612b4e602c836131c3565b9150612b59826139fe565b604082019050919050565b6000612b71602f836131c3565b9150612b7c82613a4d565b604082019050919050565b6000612b94600a836131d4565b9150612b9f82613a9c565b600a82019050919050565b6000612bb76021836131c3565b9150612bc282613ac5565b604082019050919050565b6000612bda600a836131d4565b9150612be582613b14565b600a82019050919050565b6000612bfd601d836131d4565b9150612c0882613b3d565b601d82019050919050565b6000612c206031836131c3565b9150612c2b82613b66565b604082019050919050565b612c3f8161335e565b82525050565b6000612c51828461281b565b915081905092915050565b6000612c68828561281b565b9150612c74828461281b565b91508190509392505050565b6000612c8c828661281b565b9150612c98828561281b565b9150612ca4828461281b565b9150819050949350505050565b6000612cbd828561284c565b9150612cc9828461281b565b9150612cd482612a06565b91508190509392505050565b6000612ceb82612934565b9150612cf7828461281b565b915081905092915050565b6000612d0d826129c0565b9150612d19828461281b565b915081905092915050565b6000612d2f82612b87565b9150612d3b828561281b565b9150612d468261299d565b9150612d52828461281b565b9150612d5d82612ab5565b91508190509392505050565b6000612d7482612bcd565b9150612d80828461281b565b915081905092915050565b6000612d9682612bf0565b9150612da2828461281b565b915081905092915050565b6000602082019050612dc2600083018461278b565b92915050565b6000608082019050612ddd600083018761278b565b612dea602083018661278b565b612df76040830185612c36565b8181036060830152612e0981846127a9565b905095945050505050565b6000606082019050612e29600083018661278b565b612e366020830185612c36565b612e436040830184612c36565b949350505050565b6000602082019050612e60600083018461279a565b92915050565b60006020820190508181036000830152612e8081846127e2565b905092915050565b60006040820190508181036000830152612ea281856127e2565b9050612eb16020830184612c36565b9392505050565b60006060820190508181036000830152612ed281866127e2565b9050612ee16020830185612c36565b612eee604083018461278b565b949350505050565b60006020820190508181036000830152612f0f816128cb565b9050919050565b60006020820190508181036000830152612f2f816128ee565b9050919050565b60006020820190508181036000830152612f4f81612911565b9050919050565b60006020820190508181036000830152612f6f81612957565b9050919050565b60006020820190508181036000830152612f8f8161297a565b9050919050565b60006020820190508181036000830152612faf816129e3565b9050919050565b60006020820190508181036000830152612fcf81612a29565b9050919050565b60006020820190508181036000830152612fef81612a4c565b9050919050565b6000602082019050818103600083015261300f81612a6f565b9050919050565b6000602082019050818103600083015261302f81612a92565b9050919050565b6000602082019050818103600083015261304f81612ad8565b9050919050565b6000602082019050818103600083015261306f81612afb565b9050919050565b6000602082019050818103600083015261308f81612b1e565b9050919050565b600060208201905081810360008301526130af81612b41565b9050919050565b600060208201905081810360008301526130cf81612b64565b9050919050565b600060208201905081810360008301526130ef81612baa565b9050919050565b6000602082019050818103600083015261310f81612c13565b9050919050565b600060208201905061312b6000830184612c36565b92915050565b600061313b61314c565b905061314782826133dc565b919050565b6000604051905090565b600067ffffffffffffffff82111561317157613170613514565b5b61317a82613543565b9050602081019050919050565b60008190508160005260206000209050919050565b600081519050919050565b600081519050919050565b600082825260208201905092915050565b600082825260208201905092915050565b600081905092915050565b60006131ea8261335e565b91506131f58361335e565b9250827fffffffffffffffffffffffffffffffffffffffffffffffffffffffffffffffff0382111561322a57613229613487565b5b828201905092915050565b60006132408261335e565b915061324b8361335e565b92508261325b5761325a6134b6565b5b828204905092915050565b60006132718261335e565b915061327c8361335e565b9250817fffffffffffffffffffffffffffffffffffffffffffffffffffffffffffffffff04831182151516156132b5576132b4613487565b5b828202905092915050565b60006132cb8261335e565b91506132d68361335e565b9250828210156132e9576132e8613487565b5b828203905092915050565b60006132ff8261333e565b9050919050565b60008115159050919050565b60007fffffffff0000000000000000000000000000000000000000000000000000000082169050919050565b600073ffffffffffffffffffffffffffffffffffffffff82169050919050565b6000819050919050565b82818337600083830152505050565b60005b8381101561339557808201518184015260208101905061337a565b838111156133a4576000848401525b50505050565b600060028204905060018216806133c257607f821691505b602082108114156133d6576133d56134e5565b5b50919050565b6133e582613543565b810181811067ffffffffffffffff8211171561340457613403613514565b5b80604052505050565b60006134188261335e565b91507fffffffffffffffffffffffffffffffffffffffffffffffffffffffffffffffff82141561344b5761344a613487565b5b600182019050919050565b60006134618261335e565b915061346c8361335e565b92508261347c5761347b6134b6565b5b828206905092915050565b7f4e487b7100000000000000000000000000000000000000000000000000000000600052601160045260246000fd5b7f4e487b7100000000000000000000000000000000000000000000000000000000600052601260045260246000fd5b7f4e487b7100000000000000000000000000000000000000000000000000000000600052602260045260246000fd5b7f4e487b7100000000000000000000000000000000000000000000000000000000600052604160045260246000fd5b6000601f19601f8301169050919050565b7f4552433732313a207472616e7366657220746f206e6f6e20455243373231526560008201527f63656976657220696d706c656d656e7465720000000000000000000000000000602082015250565b7f4552433732313a207472616e736665722066726f6d20696e636f72726563742060008201527f6f776e6572000000000000000000000000000000000000000000000000000000602082015250565b7f4552433732313a20746f6b656e20616c7265616479206d696e74656400000000600082015250565b7f54484952445f574f524400000000000000000000000000000000000000000000600082015250565b7f4552433732313a207472616e7366657220746f20746865207a65726f2061646460008201527f7265737300000000000000000000000000000000000000000000000000000000602082015250565b7f4552433732313a20617070726f766520746f2063616c6c657200000000000000600082015250565b7f222c20226465736372697074696f6e223a20224120686967686c79206163636c60008201527f61696d656420636f6c6c656374696f6e206f6620737175617265732e222c202260208201527f696d616765223a2022646174613a696d6167652f7376672b786d6c3b6261736560408201527f36342c0000000000000000000000000000000000000000000000000000000000606082015250565b7f5345434f4e445f574f5244000000000000000000000000000000000000000000600082015250565b7f4552433732313a206f70657261746f7220717565727920666f72206e6f6e657860008201527f697374656e7420746f6b656e0000000000000000000000000000000000000000602082015250565b7f3c2f746578743e3c2f7376673e00000000000000000000000000000000000000600082015250565b7f4552433732313a20617070726f76652063616c6c6572206973206e6f74206f7760008201527f6e6572206e6f7220617070726f76656420666f7220616c6c0000000000000000602082015250565b7f4552433732313a2062616c616e636520717565727920666f7220746865207a6560008201527f726f206164647265737300000000000000000000000000000000000000000000602082015250565b7f4552433732313a206f776e657220717565727920666f72206e6f6e657869737460008201527f656e7420746f6b656e0000000000000000000000000000000000000000000000602082015250565b7f45524337323155524953746f726167653a2055524920736574206f66206e6f6e60008201527f6578697374656e7420746f6b656e000000000000000000000000000000000000602082015250565b7f227d000000000000000000000000000000000000000000000000000000000000600082015250565b7f4552433732313a206d696e7420746f20746865207a65726f2061646472657373600082015250565b7f4e6f206d6f72652063616e20626520697373756564204e46542e000000000000600082015250565b7f45524337323155524953746f726167653a2055524920717565727920666f722060008201527f6e6f6e6578697374656e7420746f6b656e000000000000000000000000000000602082015250565b7f4552433732313a20617070726f76656420717565727920666f72206e6f6e657860008201527f697374656e7420746f6b656e0000000000000000000000000000000000000000602082015250565b7f4552433732314d657461646174613a2055524920717565727920666f72206e6f60008201527f6e6578697374656e7420746f6b656e0000000000000000000000000000000000602082015250565b7f7b226e616d65223a202200000000000000000000000000000000000000000000600082015250565b7f4552433732313a20617070726f76616c20746f2063757272656e74206f776e6560008201527f7200000000000000000000000000000000000000000000000000000000000000602082015250565b7f46495253545f574f524400000000000000000000000000000000000000000000600082015250565b7f646174613a6170706c69636174696f6e2f6a736f6e3b6261736536342c000000600082015250565b7f4552433732313a207472616e736665722063616c6c6572206973206e6f74206f60008201527f776e6572206e6f7220617070726f766564000000000000000000000000000000602082015250565b613bbe816132f4565b8114613bc957600080fd5b50565b613bd581613306565b8114613be057600080fd5b50565b613bec81613312565b8114613bf757600080fd5b50565b613c038161335e565b8114613c0e57600080fd5b5056fe416e204e465420772f20494420257320686173206265656e206d696e74656420746f2025734142434445464748494a4b4c4d4e4f505152535455565758595a6162636465666768696a6b6c6d6e6f707172737475767778797a303132333435363738392b2fa2646970667358221220410faad2cf4e6cbc5f29602277d01b05e717b5ad60e807be20f41afe79d51aae64736f6c634300080400333c73766720786d6c6e733d27687474703a2f2f7777772e77332e6f72672f323030302f73766727207072657365727665417370656374526174696f3d27784d696e594d696e206d656574272076696577426f783d273020302033353020333530273e3c7374796c653e2e62617365207b2066696c6c3a2077686974653b20666f6e742d66616d696c793a2073657269663b20666f6e742d73697a653a20323470783b207d3c2f7374796c653e3c726563742077696474683d273130302527206865696768743d2731303025272066696c6c3d27626c61636b27202f3e3c7465787420783d273530252720793d273530252720636c6173733d27626173652720646f6d696e616e742d626173656c696e653d276d6964646c652720746578742d616e63686f723d276d6964646c65273e",
  "linkReferences": {},
  "deployedLinkReferences": {}
}